:020000040800F2
:1000000000500020CD1800088D1500088F1500083D
:1000100091150008931500089515000800000000D0
:10002000000000000000000000000000971500081C
:1000300099150008000000009B1500089D15000898
:1000400015190008151900081519000815190008D8
:1000500015190008151900081519000815190008C8
:1000600015190008151900081519000815190008B8
:100070001519000815190008A9150008B915000878
:100080001519000815190008151900081519000898
:100090001519000815190008151900081519000888
:1000A0001519000815190008151900081519000878
:1000B0001519000815190008151900081519000868
:1000C0001519000815190008151900081519000858
:1000D00015190008C9150008151900081519000898
:1000E000151900081519000815190008000000006E
:1000F0000000000000000000000000000000000000
:0C01000000000000000000005FF808F1A3
:10010C0010B5054C237833B9044B13B10448AFF345
:10011C0000800123237010BD7C0000200000000033
:10012C006019000808B5034B1BB103490348AFF332
:10013C00008008BD0000000080000020601900084D
:10014C0010B504460E4B18784FF47A73B3FBF0F3EA
:10015C000C4A1068B0FBF3F000F018FF68B90F2CD4
:10016C0001D901200AE0002221464FF0FF3000F0B7
:10017C00CDFE054B1C60002000E0012010BD00BF2F
:10018C0000000020080000200400002008B5074AE9
:10019C00136843F010031360032000F0A5FE002049
:1001AC00FFF7CEFF00F01EFF002008BD002002402C
:1001BC00034A1168034B1B780B441360704700BF54
:1001CC009800002000000020014B1868704700BF09
:1001DC009800002038B50446FFF7F6FF0546B4F149
:1001EC00FF3F02D0044B1B781C44FFF7EDFF401B74
:1001FC00A042FAD338BD00BF0000002082B0084BEB
:10020C001B68084AA2FB03235B0A00FB03F0019066
:10021C0000BF019B5A1E0192002BF9D102B070470E
:10022C0008000020D34D621070B582B004460368FC
:10023C0013F0010F2CD0AB4B5B6803F00C03042BB9
:10024C001DD0A84B5B6803F00C03082B12D063681D
:10025C00B3F5803F41D0002B55D103F1804303F51A
:10026C0004331A6822F480321A601A6822F480224D
:10027C001A6037E09B4B5B6813F4803FE7D0994BD7
:10028C001B6813F4003F03D06368002B00F0AE81B1
:10029C00236813F0020F76D0924B5B6813F00C0FAF
:1002AC005FD0904B5B6803F00C03082B54D0236990
:1002BC00002B00F08A808C4B01221A60FFF784FF20
:1002CC000546884B1B6813F0020F75D1FFF77CFFB6
:1002DC00401B0228F5D903208BE1824A136843F4B2
:1002EC0080331360636843B3FFF76EFF05467D4BA5
:1002FC001B6813F4003FCBD1FFF766FF401B64284B
:10030C00F5D9032075E1B3F5A02F09D0754B1A6808
:10031C0022F480321A601A6822F480221A60E1E713
:10032C0003F18043A3F53C331A6842F480221A602F
:10033C001A6842F480321A60D4E7FFF745FF05468D
:10034C00684B1B6813F4003FA2D0FFF73DFF401B26
:10035C006428F5D903204CE1624B5B6813F4803FB1
:10036C00A5D1604B1B6813F0020F04D02369012B3D
:10037C0001D001203DE15B4A136823F0F803616969
:10038C0043EAC1031360236813F0080F32D0A3694A
:10039C00002B5BD0554B01221A60FFF715FF054669
:1003AC00504B5B6A13F0020F21D1FFF70DFF401B7E
:1003BC000228F5D903201CE14A4A136823F0F803FC
:1003CC00616943EAC1031360DDE7474B00221A6001
:1003DC00FFF7FAFE0546434B1B6813F0020FD2D011
:1003EC00FFF7F2FE401B0228F5D9032001E10120A2
:1003FC00FFF704FF236813F0040F00F09780394BCC
:10040C00DB6913F0805F33D1364BDA6942F08052EE
:10041C00DA61DB6903F080530193019B0125344BB6
:10042C001B6813F4807F25D0E368012B36D0002B9A
:10043C004CD103F1804303F504331A6A22F0010214
:10044C001A621A6A22F004021A622CE0274B00226C
:10045C001A60FFF7B9FE0546224B5B6A13F0020FD8
:10046C00C8D0FFF7B1FE401B0228F5D90320C0E02D
:10047C000025D4E71E4A136843F480731360FFF71A
:10048C00A3FE06461A4B1B6813F4807FCCD1FFF7F2
:10049C009BFE801B6428F5D90320AAE0114A136A3D
:1004AC0043F001031362E36873B3FFF78DFE064656
:1004BC000C4B1B6A13F0020F37D1FFF785FE801B24
:1004CC0041F288339842F3D9032092E0052B11D0E6
:1004DC00044B1A6A22F001021A621A6A22F0040210
:1004EC001A62E0E7001002400000424280044242DF
:1004FC0000700040414B1A6A42F004021A621A6AF8
:10050C0042F001021A62CEE7FFF75EFE06463B4B55
:10051C001B6A13F0020F08D0FFF756FE801B41F246
:10052C0088339842F3D9032063E0E5B9E369002BE3
:10053C005ED0324A526802F00C02082A5BD0022BC1
:10054C0017D02F4B00221A60FFF73EFE04462B4BB0
:10055C001B6813F0007F47D0FFF736FE001B022804
:10056C00F5D9032045E0254AD36923F08053D361A4
:10057C00DCE7234B00221A60FFF726FE05461F4BD3
:10058C001B6813F0007F06D0FFF71EFE401B0228ED
:10059C00F5D903202DE0236AB3F5803F1AD0174913
:1005AC004B6823F47413226A606A024313434B6052
:1005BC00134B01221A60FFF707FE04460F4B1B6812
:1005CC0013F0007F0ED1FFF7FFFD001B0228F5D9B9
:1005DC0003200EE0094A536823F40033A1680B434F
:1005EC005360DCE7002004E0002002E0012000E082
:1005FC00002002B070BD0120FBE700BF00100240DC
:10060C006000424210B487B0164C94E80F000DF114
:10061C00180C0CE90F00238AADF80430124B5B6800
:10062C0003F00C02082A1AD1C3F38342624412F875
:10063C00102C13F4803F05D10C4800FB02F007B0DE
:10064C0010BC7047084B5B68C3F34043634413F81A
:10065C00143C074800FB02F0B0FBF3F0EFE7044852
:10066C00EDE700BF781900080010024000093D00BA
:10067C0000127A00594B1B6803F007038B420CD213
:10068C00564A136823F007030B431360136803F0F7
:10069C0007038B4201D00120704770B5036813F03B
:1006AC00020F06D04E4A536823F0F00384682343AC
:1006BC0053600C460546036813F0010F52D0436893
:1006CC00012B23D0022B28D0454A126812F0020FBE
:1006DC0000F0828042494A6822F0030213434B60C7
:1006EC00FFF772FD06466B68012B1DD0022B2AD03A
:1006FC003B4B5B6813F00C0F34D0FFF765FD801B90
:10070C0041F288339842F3D9032064E0344A1268EA
:10071C0012F4003FDED101205DE0314A126812F084
:10072C00007FD7D1012056E02D4B5B6803F00C0302
:10073C00042B17D0FFF748FD801B41F288339842F9
:10074C00F2D9032047E0264B5B6803F00C03082B1F
:10075C0008D0FFF739FD801B41F288339842F2D95B
:10076C00032038E01D4B1B6803F00703A3420CD990
:10077C001A4A136823F0070323431360136803F02A
:10078C000703A34201D0012025E02B6813F0040FCE
:10079C0006D0134A536823F4E063E9680B435360B3
:1007AC002B6813F0080F07D00D4A536823F46053DD
:1007BC00296943EAC1035360FFF724FF084B5B68C8
:1007CC00C3F30313074AD35CD840074B18600020CF
:1007DC00FFF7B6FC002070BD0120FCE700200240B2
:1007EC0000100240A419000808000020014B1868F2
:1007FC00704700BF0800002008B5FFF7F7FF044B57
:10080C005B68C3F30223034AD35CD84008BD00BF26
:10081C0000100240B419000808B5FFF7E7FF044BBD
:10082C005B68C3F3C223034AD35CD84008BD00BF46
:10083C0000100240B41900080268D36823F0C0030A
:10084C00D360202380F8393070470268D36823F4D2
:10085C009073D3600268536923F001035361202322
:10086C0080F83A30704790F83930DBB2212B2AD11E
:10087C008368B3F5805F16D0036A5A1C02621A783B
:10088C0003685A60C38C013B9BB2C384EBB902680A
:10089C00D36823F08003D3600268D36843F040032D
:1008AC00D36000207047036A1B880268C3F30803F7
:1008BC00536003691BB9036A02330362E2E7036AFC
:1008CC0001330362DEE7022070470020704700000E
:1008DC002DE9F84305460268136923F44053C168B7
:1008EC000B43136183680269134342691343016824
:1008FC00CA6822F4B05222F00C021343CB60026897
:10090C00536923F4407381690B4353610268594B5B
:10091C009A4257D0FFF770FF00EB800000EB80008D
:10092C006C68A400B0FBF4F4534FA7FB04346409C7
:10093C002601FFF761FF00EB800000EB80006C6884
:10094C00A400B0FBF4F9FFF757FF00EB800000EBBD
:10095C0080006C68A400B0FBF4F4A7FB04346409B9
:10096C004FF0640808FB149424013234A7FB0434C0
:10097C00640904F0F0043444FFF73EFF00EB800000
:10098C0000EB80006E68B600B0FBF6F6FFF734FFA4
:10099C0000EB800000EB80006B689B00B0FBF3F079
:1009AC00A7FB0030400908FB10684FEA081808F153
:1009BC003208A7FB0837C7F343172B6827449F60FF
:1009CC00BDE8F883FFF728FF00EB800000EB800008
:1009DC006C68A400B0FBF4F4274FA7FB0434640943
:1009EC002601FFF719FF00EB800000EB80006C681C
:1009FC00A400B0FBF4F9FFF70FFF00EB800000EB55
:100A0C0080006C68A400B0FBF4F4A7FB0434640908
:100A1C004FF0640808FB149424013234A7FB04340F
:100A2C00640904F0F0043444FFF7F6FE00EB800098
:100A3C0000EB80006E68B600B0FBF6F6FFF7ECFE3C
:100A4C0000EB800000EB80006B689B00B0FBF3F0C8
:100A5C00A7FB0030400908FB10684FEA081808F1A2
:100A6C003208A7FB0837C7F343172B6827449F604E
:100A7C00A6E700BF003801401F85EB5158B310B5F5
:100A8C00044690F839300BB3242384F839302268AB
:100A9C00D36823F40053D3602046FFF719FF226874
:100AAC00136923F4904313612268536923F02A03DA
:100ABC0053612268D36843F40053D3600020E06391
:100ACC00202384F8393084F83A3010BD80F838305F
:100ADC0000F0D0FAD8E701207047000038B590F844
:100AEC003940E4B2202C31D1002931D0002A31D048
:100AFC0090F83830012B2FD013460446012280F891
:100B0C00382001628384C3840025C563212280F8C8
:100B1C003920026B11489062226B1148D062226B13
:100B2C0010481063226B556322680432206B00F06E
:100B3C009FFD23686FF040021A6084F838502268D9
:100B4C00536943F080035361284600E0022038BD0E
:100B5C000120FCE70120FAE70220F8E71F0C00084F
:100B6C006B0C00085F0D000830B583B090F83A406C
:100B7C00E4B2202C3DD100293ED0002A3ED090F882
:100B8C003830012B3CD013460A460446012180F82C
:100B9C003810826283850025C563222180F83A10C3
:100BAC00416B18488862616B1748C862616B1748C3
:100BBC000863616B4D6321680431606B00F058FD74
:100BCC00019523681A6801925A680192019A84F877
:100BDC003850DA6842F48072DA602268536943F064
:100BEC00010353612268536943F040035361284663
:100BFC0000E0022003B030BD0120FBE70120F9E743
:100C0C000220F7E7770C0008530D00085F0D000871
:100C1C00704708B5436A0268126812F0200F0CD1B5
:100C2C000022DA8419684A6922F080024A611A6843
:100C3C00D36843F04003D36008BD1846FFF7E8FFC4
:100C4C00FAE708B50168CB6823F04003CB6020239A
:100C5C0080F83930FFF7DCFF002008BD704708B57D
:100C6C00406AFFF7FBFF08BD704708B5436A02688E
:100C7C00126812F0200F13D10022DA851968CA68A5
:100C8C0022F48072CA6019684A6922F001024A6132
:100C9C0019684A6922F040024A61202283F83A20FE
:100CAC001846FFF7E1FF08BD08B590F83A30DBB203
:100CBC00222B45D18368B3F5805F0ED0036903BB4B
:100CCC0003685A68836A591C81621A70C38D013B90
:100CDC009BB2C385F3B1002033E0826A036943B948
:100CEC0003685B68C3F308031380836A023383626F
:100CFC00ECE703685B68DBB21380836A01338362C1
:100D0C00E4E703685B68826A511C816203F07F032D
:100D1C001370DBE70268D36823F02003D36002680A
:100D2C00D36823F48073D3600268536923F0010302
:100D3C005361202380F83A30FFF796FF002000E043
:100D4C00022008BD704708B5406AFFF7FBFF08BDDD
:100D5C00704710B5446A23685A6994F83930DBB28D
:100D6C00212B10D023685A6902F0400294F83A30D3
:100D7C00DBB2222B11D0E36B43F01003E36320466C
:100D8C00FFF7E6FF10BD02F08002002AEAD0002334
:100D9C00E3842046FFF750FDE4E7002AEBD0002364
:100DAC00E3852046FFF751FDE5E7000010B504464A
:100DBC0002681368D168526913F00F0005D113F063
:100DCC00200F02D011F0200F53D1002867D012F061
:100DDC00010202D111F4907F61D013F0010F06D003
:100DEC0011F4807F03D0E06B40F00100E06313F05E
:100DFC00040F04D01AB1E06B40F00200E06313F072
:100E0C00020F04D01AB1E06B40F00400E06313F061
:100E1C00080F04D01AB1E26B42F00802E263E26BF5
:100E2C00002A48D013F0200F02D011F0200F24D14B
:100E3C0023685B6903F04003E26B12F0080F00D1EA
:100E4C003BB32046FFF701FD23685A6912F0400FAF
:100E5C001BD05A6922F040025A61636B8BB11A4A5B
:100E6C005A63606B00F03EFC28B3606B436B984791
:100E7C0021E02046FFF718FF1DE02046FFF714FF86
:100E8C00D6E72046FFF764FF15E02046FFF760FF2A
:100E9C0011E02046FFF75CFF0023E3630BE013F047
:100EAC00800F02D011F0800F06D113F0400F02D04A
:100EBC0011F0400F04D110BD2046FFF7D4FCFAE727
:100ECC002046FFF7BEFEF6E7D90E000808B5406ACB
:100EDC000023C385C384FFF73BFF08BD90F839306E
:100EEC0090F83A0018437047074AD36823F4E0633C
:100EFC001B041B0C000200F4E060184340F0BF60C0
:100F0C0040F40030D060704700ED00E030B4174B77
:100F1C00DB68C3F30223C3F10704042C28BF0424A9
:100F2C001D1D062D18D9033B4FF0FF3505FA04F4AF
:100F3C0021EA0401994005FA03F322EA0303194359
:100F4C0000280BDB0901C9B200F1604000F56140DB
:100F5C0080F8001330BC70470023E5E700F00F0069
:100F6C000901C9B2024B1954F4E700BF00ED00E0CF
:100F7C0014ED00E000F01F02400901239340024AE7
:100F8C0042F82030704700BF00E100E00138B0F1BA
:100F9C00807F0AD2064B5860064AF02182F8231053
:100FAC000020986007221A6070470120704700BF2C
:100FBC0010E000E000ED00E0042805D0054A1368BD
:100FCC0023F0040313607047024A136843F00403D0
:100FDC001360704710E000E0704708B5FFF7FCFFA6
:100FEC0008BD000000B583B0204B9A6942F00102A5
:100FFC009A619B6903F001030193019B0320FFF7A6
:10100C0073FF002211466FF00B00FFF77FFF0022E9
:10101C0011466FF00A00FFF779FF002211466FF0BE
:10102C000900FFF773FF002211466FF00400FFF771
:10103C006DFF002211466FF00300FFF767FF0022DF
:10104C0011466FF00100FFF761FF002211464FF0CF
:10105C00FF30FFF75BFF064A536823F0E06343F071
:10106C008063536003B05DF804FB00BF00100240C6
:10107C00000001400268304B9A4200D0704770B5B6
:10108C0086B0044603F558439A6942F480429A614B
:10109C009B6903F480430193019B4FF4007302930B
:1010AC000223039303230593244E02A9304600F038
:1010BC0077F84FF48063029300250395049502A9F9
:1010CC00304600F06DF81E481E4B0360456085608D
:1010DC008023C360056145618561C56100F08CFAB0
:1010EC00F8B9174B63635C621748184B0360102305
:1010FC004360002383608022C2600361436183618B
:10110C00C36100F079FA88B90F4B23635C6200224B
:10111C0011462520FFF7FAFE2520FFF72BFF06B01E
:10112C0070BD7E210A4800F07FF9DAE78E2108486D
:10113C0000F07AF9E8E700BF0038014000080140F0
:10114C00E0000020580002409C00002044000240B7
:10115C008C1900080F4B1A6842F001021A6059688A
:10116C000D4A0A405A601A6822F0847222F48032C6
:10117C001A601A6822F480221A605A6822F4FE025D
:10118C005A604FF41F029A60044B4FF000629A6051
:10119C00704700BF001002400000FFF800ED00E0B7
:1011AC00F0B482B000263546A1E0002C59D0012CB9
:1011BC0000D1CE68FF2B68D88446FF2B68D8AC00D2
:1011CC00DCF800200F27A74022EA070206FA04F4F5
:1011DC002243CCF800204A6812F0805F00F0868031
:1011EC005E4A946944F001049461926902F0010230
:1011FC000192019AAC08A71C594A52F8272005F015
:10120C000307BF004FF00F0C0CFA07FC22EA0C0C82
:10121C00544A904242D002F5806290427FD002F54F
:10122C00806290427DD002F58062904234D00422DC
:10123C0035E04D4FBC4214D00BD94C4FBC4210D0B2
:10124C0007F58037BC420CD0A7F58017BC42B1D152
:10125C0007E0A7F58017BC4203D007F58037BC42E6
:10126C00A8D18C687CB1012C08D042610826A1E77A
:10127C00CE6808369EE7CE680C369BE702610826DE
:10128C0098E7002696E7042694E700F1040C94E70F
:10129C00A5F10804A40093E7032200E00022BA4061
:1012AC0042EA0C0202342E4F47F824204A6812F40A
:1012BC00803F38D02E4C22681A4322604A6812F4C0
:1012CC00003F36D02A4C62681A4362604A6812F4B6
:1012DC00801F34D0264CA2681A43A2604A6812F4CC
:1012EC00001F32D0224CE2681343E36001350F2D0E
:1012FC0031D80122AA400B6813409A42F6D14C68AF
:10130C00122CB8D095D8022CB2D07FF64EAF032C4D
:10131C00B7D0112C7FF44EAFCE6804364AE70122C9
:10132C00BDE70222BBE7124C226822EA03022260CC
:10133C00C4E70F4C626822EA03026260C6E70C4CF9
:10134C00A26822EA0302A260C8E7094CE26822EA1A
:10135C000303E360CAE702B0F0BC70470010024020
:10136C000000014000080140000021100000311075
:10137C000004014012B90904016170470161704712
:10138C00C3685940C160704710B586B0134B9A6959
:10139C0042F010029A619A6902F010020092009ACF
:1013AC009A6942F004029A619B6903F00403019369
:1013BC00019B0B4C00224FF400512046FFF7DAFF43
:1013CC004FF400530293012303930223059302A9C4
:1013DC002046FFF7E5FE06B010BD00BF001002402E
:1013EC000010014000B583B00E4B5A6942F0010267
:1013FC005A615B6903F001030193019B00221146C2
:10140C000E20FFF783FD0E20FFF7B4FD00221146DE
:10141C000F20FFF77BFD0F20FFF7ACFD03B05DF84D
:10142C0004FB00BF00100240FEE7000008B50B48AB
:10143C000B4B03604FF4E133436000238360C360C4
:10144C0003610C2242618361C361FFF717FB00B992
:10145C0008BDF9210348FFF7E7FF00BF2401002076
:10146C0000380140BC19000800B591B00223069366
:10147C0001230A9310230B9300230D9306A8FEF768
:10148C00D3FEF0B90F230193002102910391049133
:10149C00059101A8FFF7EEF8B8B9FFF7A7F90D4BC6
:1014AC00A3FB00308009FFF771FD0420FFF784FDDA
:1014BC00002211464FF0FF30FFF728FD11B05DF808
:1014CC0004FBCE210448FFF7AFFFDC210248FFF7F5
:1014DC00ABFF00BFD34D6210BC19000808B5FEF776
:1014EC0055FEFFF7C1FFFFF74FFFFFF77BFFFFF73D
:1014FC009DFF1D48FFF7C2FA28BB1C4B1A781C49EC
:10150C001948FFF7EBFA10BB01221A491648FFF7EE
:10151C002BFB00BB1448FFF7E1FC2028FAD1012279
:10152C0014491148FFF7DAFAC8B90F48FFF7D6FC8F
:10153C002028FAD14FF400510F48FFF721FF642007
:10154C00FEF748FED5E77F210C48FFF76DFF86219B
:10155C000A48FFF769FF8F210848FFF765FFA121B3
:10156C000648FFF761FF00BF240100200C0000209B
:10157C00100000206401002000100140BC1900087C
:10158C007047FEE7FEE7FEE7FEE7704770477047DF
:10159C0008B5FEF70DFEFFF720FD08BD08B50248A3
:1015AC0000F0ECF808BD00BF9C00002008B5024814
:1015BC0000F0E4F808BD00BFE000002008B50248C8
:1015CC00FFF7F4FB08BD00BF2401002070B4066CCB
:1015DC00C56B0124B4406C60046863604368102BD5
:1015EC0005D0036899600368DA6070BC70470368C3
:1015FC009A600368D960F8E7002830D010B403462D
:10160C000168184A0A441848A0FB02021209920009
:10161C001A64164ADA63022283F82120086820F43F
:10162C007F5020F030005A689C682243DC682243CB
:10163C001C6922435C6922439C692243DC69224376
:10164C0002430A6000209862D8621863586398635A
:10165C00012283F8212083F8200010BC7047012060
:10166C00704700BFF8FFFDBFCDCCCCCC00000240D2
:10167C0038B590F82040012C32D0012480F820405D
:10168C0090F82140012C04D0002380F82030022057
:10169C0038BD0446022084F821000020A063256890
:1016AC00286820F0010028602046FFF78FFFE36ACE
:1016BC005BB12268136843F00E0313602268136851
:1016CC0043F0010313600020E2E72268136823F063
:1016DC00040313602268136843F00A031360EDE7F8
:1016EC000220D5E708B590F82130022B03D0042353
:1016FC008363012008BD0268136823F00E03136096
:10170C000268136823F0010313600368194A9342BB
:10171C0014D0143293421FD0143293421ED0143280
:10172C0093421ED0143293421ED01432934202D0F4
:10173C004FF0807203E04FF4801200E001220E4B58
:10174C005A60012380F82130002380F82030436B4D
:10175C006BB198470020CDE71022F0E74FF4807270
:10176C00EDE74FF48052EAE74FF48032E7E70020D0
:10177C00C0E700BF080002400000024038B5C36B50
:10178C001A6804682568016C04238B40134235D019
:10179C0015F0040F32D0236813F0200F03D1236807
:1017AC0023F0040323600368434A934214D0143299
:1017BC00934218D01432934217D01432934217D05C
:1017CC001432934217D01432934202D04FF08062FD
:1017DC0003E04FF4800200E00422384B5A60C36AE5
:1017EC0003B1984738BD4022F7E74FF48062F4E725
:1017FC004FF48042F1E74FF48022EEE702238B4056
:10180C0013423CD015F0020F39D0236813F0200F8F
:10181C0006D1236823F00A032360012380F82130CA
:10182C000368254A934214D0143293421CD01432CC
:10183C0093421BD0143293421BD0143293421BD0D0
:10184C001432934202D04FF0007203E04FF40012B6
:10185C0000E00222194B5A60002380F82030836A82
:10186C00002BBFD09847BDE72022F3E74FF400725E
:10187C00F0E74FF40052EDE74FF40032EAE70823AB
:10188C0003FA01F11142ADD015F0080FAAD023686C
:10189C0023F00E032360026CC16B012303FA02F2E6
:1018AC004A60836380F82130002380F82030036B7A
:1018BC00002B97D0984795E70800024000000240A3
:1018CC00002103E00B4B5B58435004310A480B4B8F
:1018DC0042189A42F6D30A4A02E0002342F8043B2B
:1018EC00084B9A42F9D3FFF735FC00F00FF8FFF7DD
:1018FC00F5FD7047D0190008000000207C00002086
:10190C007C00002068010020FEE7000070B5002577
:10191C000C4E0D4CA41BA410A54209D100F01AF8D2
:10192C0000250A4E0A4CA41BA410A54205D170BD7B
:10193C0056F8253098470135EEE756F8253098478C
:10194C000135F2E7C8190008C8190008C8190008C1
:10195C00CC190008F8B500BFF8BC08BC9E4670470F
:0C196C00F8B500BFF8BC08BC9E467047F0
:1019780002030405060708090A0B0C0D0E0F1010C8
:10198800010200005372632F73746D33326631782D
:10199800785F68616C5F6D73702E630000000000F3
:1019A8000000000001020304060708090000000007
:1019B800010203045372632F6D61696E2E63000088
:0419C80031010008E1
:0419CC000D01000801
:1019D000010000001000000000A24A046C0000009A
:1019E0000A0D202A2A2A2A554152542D4879706519
:1019F000727465726D696E616C20636F6D6D756E6A
:101A000069636174696F6E206261736564206F6ED3
:101A100020444D412A2A2A2A0A0D20456E746572F7
:101A200020525842554646455253495A452063680C
:101A30006172616374657273207573696E67206B80
:0C1A40006579626F617264203A0A0D0043
:04000005080018CD0A
:00000001FF
