:020000040800F2
:10000000005000201D1F0008F1150008F31500081E
:10001000F5150008F7150008F915000800000000A4
:10002000000000000000000000000000FB150008B8
:10003000FD15000800000000FF150008011600086B
:10004000651F0008651F0008651F0008651F000880
:10005000651F0008651F0008651F0008651F000870
:10006000651F0008651F0008651F0008651F000860
:10007000651F0008651F00080D1600081D16000802
:100080002D1600083D160008651F0008651F0008B2
:10009000651F0008651F0008651F0008651F000830
:1000A000651F0008651F0008651F0008651F000820
:1000B000651F0008651F0008651F0008651F000810
:1000C000651F0008651F0008651F0008651F000800
:1000D000651F00084D1600085D160008651F000822
:1000E000651F0008651F0008651F0008000000006C
:1000F0000000000000000000000000000000000000
:0C01000000000000000000005FF808F1A3
:10010C0010B5054C237833B9044B13B10448AFF345
:10011C0000800123237010BD7C0000200000000033
:10012C00B01F000808B5034B1BB103490348AFF3DC
:10013C00008008BD0000000080000020B01F0008F7
:10014C0010B504460E4B18784FF47A73B3FBF0F3EA
:10015C000C4A1068B0FBF3F000F09EFE68B90F2C4F
:10016C0001D901200AE0002221464FF0FF3000F0B7
:10017C0053FE054B1C60002000E0012010BD00BFA9
:10018C0000000020080000200400002008B5074AE9
:10019C00136843F010031360032000F02BFE0020C3
:1001AC00FFF7CEFF00F0A4FE002008BD00200240A7
:1001BC00034A1168034B1B780B441360704700BF54
:1001CC009800002000000020014B1868704700BF09
:1001DC009800002038B50446FFF7F6FF0546B4F149
:1001EC00FF3F02D0044B1B781C44FFF7EDFF401B74
:1001FC00A042FAD338BD00BF0000002082B0084BEB
:10020C001B68084AA2FB03235B0A00FB03F0019066
:10021C0000BF019B5A1E0192002BF9D102B070470E
:10022C0008000020D34D621070B582B004460368FC
:10023C0013F0010F2CD0AB4B5B6803F00C03042BB9
:10024C001DD0A84B5B6803F00C03082B12D063681D
:10025C00B3F5803F41D0002B55D103F1804303F51A
:10026C0004331A6822F480321A601A6822F480224D
:10027C001A6037E09B4B5B6813F4803FE7D0994BD7
:10028C001B6813F4003F03D06368002B00F0AE81B1
:10029C00236813F0020F76D0924B5B6813F00C0FAF
:1002AC005FD0904B5B6803F00C03082B54D0236990
:1002BC00002B00F08A808C4B01221A60FFF784FF20
:1002CC000546884B1B6813F0020F75D1FFF77CFFB6
:1002DC00401B0228F5D903208BE1824A136843F4B2
:1002EC0080331360636843B3FFF76EFF05467D4BA5
:1002FC001B6813F4003FCBD1FFF766FF401B64284B
:10030C00F5D9032075E1B3F5A02F09D0754B1A6808
:10031C0022F480321A601A6822F480221A60E1E713
:10032C0003F18043A3F53C331A6842F480221A602F
:10033C001A6842F480321A60D4E7FFF745FF05468D
:10034C00684B1B6813F4003FA2D0FFF73DFF401B26
:10035C006428F5D903204CE1624B5B6813F4803FB1
:10036C00A5D1604B1B6813F0020F04D02369012B3D
:10037C0001D001203DE15B4A136823F0F803616969
:10038C0043EAC1031360236813F0080F32D0A3694A
:10039C00002B5BD0554B01221A60FFF715FF054669
:1003AC00504B5B6A13F0020F21D1FFF70DFF401B7E
:1003BC000228F5D903201CE14A4A136823F0F803FC
:1003CC00616943EAC1031360DDE7474B00221A6001
:1003DC00FFF7FAFE0546434B1B6813F0020FD2D011
:1003EC00FFF7F2FE401B0228F5D9032001E10120A2
:1003FC00FFF704FF236813F0040F00F09780394BCC
:10040C00DB6913F0805F33D1364BDA6942F08052EE
:10041C00DA61DB6903F080530193019B0125344BB6
:10042C001B6813F4807F25D0E368012B36D0002B9A
:10043C004CD103F1804303F504331A6A22F0010214
:10044C001A621A6A22F004021A622CE0274B00226C
:10045C001A60FFF7B9FE0546224B5B6A13F0020FD8
:10046C00C8D0FFF7B1FE401B0228F5D90320C0E02D
:10047C000025D4E71E4A136843F480731360FFF71A
:10048C00A3FE06461A4B1B6813F4807FCCD1FFF7F2
:10049C009BFE801B6428F5D90320AAE0114A136A3D
:1004AC0043F001031362E36873B3FFF78DFE064656
:1004BC000C4B1B6A13F0020F37D1FFF785FE801B24
:1004CC0041F288339842F3D9032092E0052B11D0E6
:1004DC00044B1A6A22F001021A621A6A22F0040210
:1004EC001A62E0E7001002400000424280044242DF
:1004FC0000700040414B1A6A42F004021A621A6AF8
:10050C0042F001021A62CEE7FFF75EFE06463B4B55
:10051C001B6A13F0020F08D0FFF756FE801B41F246
:10052C0088339842F3D9032063E0E5B9E369002BE3
:10053C005ED0324A526802F00C02082A5BD0022BC1
:10054C0017D02F4B00221A60FFF73EFE04462B4BB0
:10055C001B6813F0007F47D0FFF736FE001B022804
:10056C00F5D9032045E0254AD36923F08053D361A4
:10057C00DCE7234B00221A60FFF726FE05461F4BD3
:10058C001B6813F0007F06D0FFF71EFE401B0228ED
:10059C00F5D903202DE0236AB3F5803F1AD0174913
:1005AC004B6823F47413226A606A024313434B6052
:1005BC00134B01221A60FFF707FE04460F4B1B6812
:1005CC0013F0007F0ED1FFF7FFFD001B0228F5D9B9
:1005DC0003200EE0094A536823F40033A1680B434F
:1005EC005360DCE7002004E0002002E0012000E082
:1005FC00002002B070BD0120FBE700BF00100240DC
:10060C006000424210B487B0164C94E80F000DF114
:10061C00180C0CE90F00238AADF80430124B5B6800
:10062C0003F00C02082A1AD1C3F38342624412F875
:10063C00102C13F4803F05D10C4800FB02F007B0DE
:10064C0010BC7047084B5B68C3F34043634413F81A
:10065C00143C074800FB02F0B0FBF3F0EFE7044852
:10066C00EDE700BFC81F00080010024000093D0064
:10067C0000127A00594B1B6803F007038B420CD213
:10068C00564A136823F007030B431360136803F0F7
:10069C0007038B4201D00120704770B5036813F03B
:1006AC00020F06D04E4A536823F0F00384682343AC
:1006BC0053600C460546036813F0010F52D0436893
:1006CC00012B23D0022B28D0454A126812F0020FBE
:1006DC0000F0828042494A6822F0030213434B60C7
:1006EC00FFF772FD06466B68012B1DD0022B2AD03A
:1006FC003B4B5B6813F00C0F34D0FFF765FD801B90
:10070C0041F288339842F3D9032064E0344A1268EA
:10071C0012F4003FDED101205DE0314A126812F084
:10072C00007FD7D1012056E02D4B5B6803F00C0302
:10073C00042B17D0FFF748FD801B41F288339842F9
:10074C00F2D9032047E0264B5B6803F00C03082B1F
:10075C0008D0FFF739FD801B41F288339842F2D95B
:10076C00032038E01D4B1B6803F00703A3420CD990
:10077C001A4A136823F0070323431360136803F02A
:10078C000703A34201D0012025E02B6813F0040FCE
:10079C0006D0134A536823F4E063E9680B435360B3
:1007AC002B6813F0080F07D00D4A536823F46053DD
:1007BC00296943EAC1035360FFF724FF084B5B68C8
:1007CC00C3F30313074AD35CD840074B18600020CF
:1007DC00FFF7B6FC002070BD0120FCE700200240B2
:1007EC0000100240F41F000808000020014B18689C
:1007FC00704700BF0800002008B5FFF7F7FF044B57
:10080C005B68C3F30223034AD35CD84008BD00BF26
:10081C00001002400420000808B5FFF7E7FF044B66
:10082C005B68C3F3C223034AD35CD84008BD00BF46
:10083C0000100240042000080268D36823F0C003B3
:10084C00D360202380F8393070470268D36823F4D2
:10085C009073D3600268536923F001035361202322
:10086C0080F83A30704790F83930DBB2212B2AD11E
:10087C008368B3F5805F16D0036A5A1C02621A783B
:10088C0003685A60C38C013B9BB2C384EBB902680A
:10089C00D36823F08003D3600268D36843F040032D
:1008AC00D36000207047036A1B880268C3F30803F7
:1008BC00536003691BB9036A02330362E2E7036AFC
:1008CC0001330362DEE7022070470020704700000E
:1008DC002DE9F84305460268136923F44053C168B7
:1008EC000B43136183680269134342691343016824
:1008FC00CA6822F4B05222F00C021343CB60026897
:10090C00536923F4407381690B4353610268594B5B
:10091C009A4257D0FFF770FF00EB800000EB80008D
:10092C006C68A400B0FBF4F4534FA7FB04346409C7
:10093C002601FFF761FF00EB800000EB80006C6884
:10094C00A400B0FBF4F9FFF757FF00EB800000EBBD
:10095C0080006C68A400B0FBF4F4A7FB04346409B9
:10096C004FF0640808FB149424013234A7FB0434C0
:10097C00640904F0F0043444FFF73EFF00EB800000
:10098C0000EB80006E68B600B0FBF6F6FFF734FFA4
:10099C0000EB800000EB80006B689B00B0FBF3F079
:1009AC00A7FB0030400908FB10684FEA081808F153
:1009BC003208A7FB0837C7F343172B6827449F60FF
:1009CC00BDE8F883FFF728FF00EB800000EB800008
:1009DC006C68A400B0FBF4F4274FA7FB0434640943
:1009EC002601FFF719FF00EB800000EB80006C681C
:1009FC00A400B0FBF4F9FFF70FFF00EB800000EB55
:100A0C0080006C68A400B0FBF4F4A7FB0434640908
:100A1C004FF0640808FB149424013234A7FB04340F
:100A2C00640904F0F0043444FFF7F6FE00EB800098
:100A3C0000EB80006E68B600B0FBF6F6FFF7ECFE3C
:100A4C0000EB800000EB80006B689B00B0FBF3F0C8
:100A5C00A7FB0030400908FB10684FEA081808F1A2
:100A6C003208A7FB0837C7F343172B6827449F604E
:100A7C00A6E700BF003801401F85EB5158B310B5F5
:100A8C00044690F839300BB3242384F839302268AB
:100A9C00D36823F40053D3602046FFF719FF226874
:100AAC00136923F4904313612268536923F02A03DA
:100ABC0053612268D36843F40053D3600020E06391
:100ACC00202384F8393084F83A3010BD80F838305F
:100ADC0000F056FAD8E701207047000038B590F8BE
:100AEC003940E4B2202C31D1002931D0002A31D048
:100AFC0090F83830012B2FD013460446012280F891
:100B0C00382001628384C3840025C563212280F8C8
:100B1C003920026B11489062226B1148D062226B13
:100B2C0010481063226B556322680432206B00F06E
:100B3C00E9FD23686FF040021A6084F8385022688F
:100B4C00536943F080035361284600E0022038BD0E
:100B5C000120FCE70120FAE70220F8E7770B0008F8
:100B6C00C30B00086D0C0008704708B5436A026897
:100B7C00126812F0200F0CD10022DA8419684A692D
:100B8C0022F080024A611A68D36843F04003D360B4
:100B9C0008BD1846FFF7E8FFFAE708B50168CB680F
:100BAC0023F04003CB60202380F83930FFF7DCFFC3
:100BBC00002008BD704708B5406AFFF7FBFF08BD71
:100BCC00704708B590F83A30DBB2222B45D18368D8
:100BDC00B3F5805F0ED0036903BB03685A68836A60
:100BEC00591C81621A70C38D013B9BB2C385F3B152
:100BFC00002033E0826A036943B903685B68C3F37E
:100C0C0008031380836A02338362ECE703685B6832
:100C1C00DBB21380836A01338362E4E703685B68A9
:100C2C00826A511C816203F07F031370DBE7026858
:100C3C00D36823F02003D3600268D36823F4807355
:100C4C00D3600268536923F001035361202380F8B9
:100C5C003A30FFF7B5FF002000E0022008BD7047D6
:100C6C0010B5446A23685A6994F83930DBB2212BE9
:100C7C0010D023685A6902F0400294F83A30DBB283
:100C8C00222B11D0E36B43F01003E3632046FFF7F4
:100C9C00E6FF10BD02F08002002AEAD00023E384B4
:100CAC002046FFF7C9FDE4E7002AEBD00023E385DB
:100CBC002046FFF7CAFDE5E710B504460268136845
:100CCC00D168526913F00F0005D113F0200F02D038
:100CDC0011F0200F53D1002867D012F0010202D17D
:100CEC0011F4907F61D013F0010F06D011F4807FC6
:100CFC0003D0E06B40F00100E06313F0040F04D06C
:100D0C001AB1E06B40F00200E06313F0020F04D064
:100D1C001AB1E06B40F00400E06313F0080F04D04C
:100D2C001AB1E26B42F00802E263E26B002A48D08F
:100D3C0013F0200F02D011F0200F24D123685B692F
:100D4C0003F04003E26B12F0080F00D13BB32046D6
:100D5C00FFF77BFD23685A6912F0400F1BD05A69CC
:100D6C0022F040025A61636B8BB11A4A5A63606B72
:100D7C0000F002FD28B3606B436B984721E02046DE
:100D8C00FFF71FFF1DE02046FFF71BFFD6E72046AD
:100D9C00FFF765FF15E02046FFF761FF11E02046E5
:100DAC00FFF75DFF0023E3630BE013F0800F02D02D
:100DBC0011F0800F06D113F0400F02D011F0400F4C
:100DCC0004D110BD2046FFF74EFDFAE72046FFF791
:100DDC00E4FEF6E7E50D000808B5406A0023C3857C
:100DEC00C384FFF73CFF08BD90F8393090F83A0007
:100DFC0018437047074AD36823F4E0631B041B0CA9
:100E0C00000200F4E060184340F0BF6040F4003092
:100E1C00D060704700ED00E030B4174BDB68C3F3D3
:100E2C000223C3F10704042C28BF04241D1D062D26
:100E3C0018D9033B4FF0FF3505FA04F421EA0401FD
:100E4C00994005FA03F322EA0303194300280BDB4C
:100E5C000901C9B200F1604000F5614080F800134F
:100E6C0030BC70470023E5E700F00F000901C9B260
:100E7C00024B1954F4E700BF00ED00E014ED00E064
:100E8C0000F01F02400901239340024A42F820302F
:100E9C00704700BF00E100E00138B0F1807F0AD25A
:100EAC00064B5860064AF02182F823100020986007
:100EBC0007221A6070470120704700BF10E000E065
:100ECC0000ED00E0042805D0054A136823F0040364
:100EDC0013607047024A136843F0040313607047B1
:100EEC0010E000E0704708B5FFF7FCFF08BD0000FC
:100EFC0000B583B0204B9A6942F001029A619B695C
:100F0C0003F001030193019B0320FFF773FF002201
:100F1C0011466FF00B00FFF77FFF002211466FF0B8
:100F2C000A00FFF779FF002211466FF00900FFF766
:100F3C0073FF002211466FF00400FFF76DFF0022D3
:100F4C0011466FF00300FFF767FF002211466FF0A8
:100F5C000100FFF761FF002211464FF0FF30FFF751
:100F6C005BFF064A536823F0E06343F080635360F1
:100F7C0003B05DF804FB00BF00100240000001400C
:100F8C000268304B9A4200D0704770B586B0044668
:100F9C0003F558439A6942F480429A619B6903F4C1
:100FAC0080430193019B4FF400730293022303933C
:100FBC0003230593244E02A9304600F0E5F84FF4C4
:100FCC008063029300250395049502A9304600F036
:100FDC00DBF81E481E4B0360456085608023C360B0
:100FEC00056145618561C56100F050FBF8B9174B8F
:100FFC0063635C621748184B036010234360002343
:10100C0083608022C260036143618361C36100F02D
:10101C003DFB88B90F4B23635C62002211462520EF
:10102C00FFF7FAFE2520FFF72BFF06B070BD8221DB
:10103C000A4800F0FDF9DAE79221084800F0F8F9C7
:10104C00E8E700BF003801400008014024010020FF
:10105C0058000240E000002044000240DC1F000861
:10106C0002682F4B9A4200D0704770B586B0044688
:10107C0003F5E633DA6942F40032DA61DB6903F432
:10108C0000330193019B0423029312230393032641
:10109C000596244D02A9284600F076F810230293F9
:1010AC0002230393059602A9284600F06DF81E480A
:1010BC001E4B03600023436083608022C260036187
:1010CC0043618361C36100F0E1FAF8B9164B6364C4
:1010DC005C621748174B0360102343600023836046
:1010EC008022C260036143618361C36100F0CEFA68
:1010FC0088B90F4B23645C62002211462620FFF74F
:10110C008BFE2620FFF7BCFE06B070BDC7210A4837
:10111C0000F08EF9DAE7D721074800F089F9E8E703
:10112C0000440040000801409C0000206C0002407C
:10113C006801002080000240DC1F00080F4B1A6879
:10114C0042F001021A6059680D4A0A405A601A6846
:10115C0022F0847222F480321A601A6822F48022FF
:10116C001A605A6822F4FE025A604FF41F029A6009
:10117C00044B4FF000629A60704700BF00100240B1
:10118C000000FFF800ED00E0F0B482B00026354618
:10119C00A1E0002C59D0012C00D1CE68FF2B68D8CF
:1011AC008446FF2B68D8AC00DCF800200F27A74042
:1011BC0022EA070206FA04F42243CCF800204A681B
:1011CC0012F0805F00F086805E4A946944F001045E
:1011DC009461926902F001020192019AAC08A71C79
:1011EC00594A52F8272005F00307BF004FF00F0CA7
:1011FC000CFA07FC22EA0C0C544A904242D002F53D
:10120C00806290427FD002F5806290427DD002F5E0
:10121C008062904234D0042235E04D4FBC4214D051
:10122C000BD94C4FBC4210D007F58037BC420CD0C8
:10123C00A7F58017BC42B1D107E0A7F58017BC42D7
:10124C0003D007F58037BC42A8D18C687CB1012C47
:10125C0008D042610826A1E7CE6808369EE7CE6822
:10126C000C369BE70261082698E7002696E70426D1
:10127C0094E700F1040C94E7A5F10804A40093E7AB
:10128C00032200E00022BA4042EA0C0202342E4F44
:10129C0047F824204A6812F4803F38D02E4C22683C
:1012AC001A4322604A6812F4003F36D02A4C626816
:1012BC001A4362604A6812F4801F34D0264CA2682C
:1012CC001A43A2604A6812F4001F32D0224CE26822
:1012DC001343E36001350F2D31D80122AA400B686E
:1012EC0013409A42F6D14C68122CB8D095D8022CE7
:1012FC00B2D07FF64EAF032CB7D0112C7FF44EAF8B
:10130C00CE6804364AE70122BDE70222BBE7124C45
:10131C00226822EA03022260C4E70F4C626822EAC8
:10132C0003026260C6E70C4CA26822EA0302A260C8
:10133C00C8E7094CE26822EA0303E360CAE702B09B
:10134C00F0BC704700100240000001400008014052
:10135C0000002110000031100004014012B90904F2
:10136C000161704701617047C3685940C1607047A3
:10137C0010B586B0134B9A6942F010029A619A69C3
:10138C0002F010020092009A9A6942F004029A61EB
:10139C009B6903F004030193019B0B4C00224FF457
:1013AC0000512046FFF7DAFF4FF40053029301235C
:1013BC0003930223059302A92046FFF7E5FE06B02E
:1013CC0010BD00BF001002400010014000B583B0FA
:1013DC00164B5A6942F001025A615B6903F0010332
:1013EC000193019B002211460E20FFF715FD0E20E4
:1013FC00FFF746FD002211460F20FFF70DFD0F20D1
:10140C00FFF73EFD002211461020FFF705FD1020CE
:10141C00FFF736FD002211461120FFF7FDFC1120CD
:10142C00FFF72EFD03B05DF804FB00BF0010024077
:10143C00FEE7000008B50B480B4B03604FF4E1339B
:10144C00436000238360C36003610C2242618361AB
:10145C00C361FFF713FB00B908BD4FF4807103485B
:10146C00FFF7E6FFAC010020003801400C2000081B
:10147C0008B51148114B03604FF4E13343604FF44E
:10148C00805383604FF44053C3604FF48063036117
:10149C000C23436100238361C36103620A2242620D
:1014AC008362C36200F076FB00B908BD40F21711ED
:1014BC000348FFF7BDFF00BFEC01002000440040D3
:1014CC000C20000800B591B00223069301230A9367
:1014DC0010230B9300230D9306A8FEF7A5FEF0B97D
:1014EC000F2301930021029103910491059101A80E
:1014FC00FFF7C0F8B8B9FFF779F90D4BA3FB003033
:10150C008009FFF7C9FC0420FFF7DCFC0022114620
:10151C004FF0FF30FFF780FC11B05DF804FBD521D4
:10152C000448FFF785FFE3210248FFF781FF00BF66
:10153C00D34D62100C20000808B5FEF727FEFFF70C
:10154C00C1FFFFF715FFFFF741FFFFF773FFFFF731
:10155C008FFF1D48FFF792FA28BB1C4B1A781C49C9
:10156C001948FFF7BBFA10BB01221A491A4800F0C0
:10157C0063FB00BB1448FFF737FC2028FAD101228B
:10158C0014491148FFF7AAFAC8B90F48FFF72CFC09
:10159C002028FAD14FF400511048FFF7E5FE6420E3
:1015AC00FEF718FED5E786210D48FFF741FF8D2188
:1015BC000B48FFF73DFF96210948FFF739FFA8219B
:1015CC000748FFF735FF00BFAC0100200C000020DE
:1015DC00100000203C020020EC0100200010014013
:1015EC000C2000087047FEE7FEE7FEE7FEE77047B9
:1015FC007047704708B5FEF7DBFDFFF774FC08BDBC
:10160C0008B5024800F004F908BD00BFE000002056
:10161C0008B5024800F0FCF808BD00BF240100200A
:10162C0008B5024800F0F4F808BD00BF9C0000208B
:10163C0008B5024800F0ECF808BD00BF68010020B6
:10164C0008B50248FFF738FB08BD00BFAC0100200D
:10165C0008B5024800F0C4FB08BD00BFEC01002037
:10166C0070B4066CC56B0124B4406C600468636094
:10167C004368102B05D0036899600368DA6070BC6E
:10168C00704703689A600368D960F8E7002830D087
:10169C0010B403460168184A0A441848A0FB020219
:1016AC00120992001A64164ADA63022283F8212086
:1016BC00086820F47F5020F030005A689C68224360
:1016CC00DC6822431C6922435C6922439C692243E7
:1016DC00DC69224302430A6000209862D8621863D6
:1016EC0058639863012283F8212083F8200010BCF2
:1016FC0070470120704700BFF8FFFDBFCDCCCCCCAC
:10170C000000024038B590F82040012C32D0012462
:10171C0080F8204090F82140012C04D0002380F860
:10172C002030022038BD0446022084F8210000201D
:10173C00A0632568286820F0010028602046FFF788
:10174C008FFFE36A5BB12268136843F00E031360EA
:10175C002268136843F0010313600020E2E722685B
:10176C00136823F0040313602268136843F00A0320
:10177C001360EDE70220D5E708B590F82130022B75
:10178C0003D004238363012008BD0268136823F08F
:10179C000E0313600268136823F0010313600368DF
:1017AC00194A934214D0143293421FD014329342EC
:1017BC001ED0143293421ED0143293421ED01432D7
:1017CC00934202D04FF0807203E04FF4801200E09D
:1017DC0001220E4B5A60012380F82130002380F83F
:1017EC002030436B6BB198470020CDE71022F0E717
:1017FC004FF48072EDE74FF48052EAE74FF48032F9
:10180C00E7E70020C0E700BF0800024000000240EC
:10181C0038B5C36B1A6804682568016C04238B40C7
:10182C00134235D015F0040F32D0236813F0200F7B
:10183C0003D1236823F0040323600368434A9342D3
:10184C0014D01432934218D01432934217D014325D
:10185C00934217D01432934217D01432934202D0D1
:10186C004FF0806203E04FF4800200E00422384B1A
:10187C005A60C36A03B1984738BD4022F7E74FF46A
:10188C008062F4E74FF48042F1E74FF48022EEE7F8
:10189C0002238B4013423CD015F0020F39D0236841
:1018AC0013F0200F06D1236823F00A0323600123D1
:1018BC0080F821300368254A934214D014329342A5
:1018CC001CD0143293421BD0143293421BD01432CE
:1018DC0093421BD01432934202D04FF0007203E0BB
:1018EC004FF4001200E00222194B5A60002380F8DA
:1018FC002030836A002BBFD09847BDE72022F3E746
:10190C004FF40072F0E74FF40052EDE74FF4003261
:10191C00EAE7082303FA01F11142ADD015F0080FE4
:10192C00AAD0236823F00E032360026CC16B012341
:10193C0003FA02F24A60836380F82130002380F8B6
:10194C002030036B002B97D0984795E70800024096
:10195C0000000240202380F849300268D36823F04D
:10196C00C003D3607047202380F84A300268D368E4
:10197C0023F49073D3600268536923F0010353611D
:10198C00704790F84930DBB2212B17D1026B0368FA
:10199C0012785A60036B01330363C38E013B9BB215
:1019AC00C3866BB90268D36823F08003D3600268E6
:1019BC00D36843F04003D360002070470220704787
:1019CC00002070472DE9F84304460268D36823F0E1
:1019DC000C03D36001680A6922F470628369C069E0
:1019EC000343206A0343E0680343134343F4006357
:1019FC000B6121680A6922F44052E36813430B61BE
:101A0C002168CA6822F4B05222F00C02A368206943
:101A1C000343606903431343CB602268536923F487
:101A2C00407353612268594B9A4257D0FEF7E4FE3B
:101A3C0000EB800000EB80006568AD00B0FBF5F5B5
:101A4C00534FA7FB05356D092E01FEF7D5FE00EBB4
:101A5C00800000EB80006568AD00B0FBF5F9FEF787
:101A6C00CBFE00EB800000EB80006568AD00B0FBA6
:101A7C00F5F5A7FB05356D094FF0640808FB1595C6
:101A8C002D013235A7FB05356D0905F0F005354400
:101A9C00FEF7B2FE00EB800000EB80006668B6003B
:101AAC00B0FBF6F6FEF7A8FE00EB800000EB800022
:101ABC0063689B00B0FBF3F0A7FB0030400908FB08
:101ACC0010684FEA081808F13208A7FB0837C7F36B
:101ADC00431723682F449F60BDE8F883FEF79CFEF4
:101AEC0000EB800000EB80006568AD00B0FBF5F505
:101AFC00274FA7FB05356D092E01FEF78DFE00EB78
:101B0C00800000EB80006568AD00B0FBF5F9FEF7D6
:101B1C0083FE00EB800000EB80006568AD00B0FB3D
:101B2C00F5F5A7FB05356D094FF0640808FB159515
:101B3C002D013235A7FB05356D0905F0F00535444F
:101B4C00FEF76AFE00EB800000EB80006668B600D2
:101B5C00B0FBF6F6FEF760FE00EB800000EB8000B9
:101B6C0063689B00B0FBF3F0A7FB0030400908FB57
:101B7C0010684FEA081808F13208A7FB0837C7F3BA
:101B8C00431723682F449F60A6E700BF003801402D
:101B9C001F85EB5100284CD010B5044690F8493005
:101BAC00002B41D0242384F849302268936923F018
:101BBC00FF03616A0B4393612268936923F47F43AB
:101BCC00A16A43EA012393612046FFF7FBFE2268DA
:101BDC00136923F4804313612268536923F00A03C9
:101BEC0053612268D36843F48073D36022685369CD
:101BFC0043F0010353612268D36843F40053D3606C
:101C0C002268536923F01003E16A0B435361226885
:101C1C00536943F0200353610020E064202384F8CF
:101C2C00493084F84A3010BD80F84830FFF718FA74
:101C3C00B8E701207047000030B583B090F84A40F7
:101C4C00E4B2202C3AD100293BD0002A3BD090F8AA
:101C5C004830012B39D013460A460446012180F83E
:101C6C004810826383870025C564222180F84A10BE
:101C7C00416C17488862616C16480863216C4D638F
:101C8C0021680431606CFFF73DFD019523681A68EB
:101C9C0001925A680192019A84F84850DA6842F429
:101CAC008072DA602268536943F001035361226841
:101CBC00536943F040035361284600E0022003B00F
:101CCC0030BD0120FBE70120F9E70220F7E700BF58
:101CDC000D1D0008991D0008704708B50168CA68F9
:101CEC0022F04002CA6001684A6922F001024A618E
:101CFC00202280F84920FFF7EFFF002008BD704735
:101D0C0008B5406A0023C3870268D36823F4907334
:101D1C00D3600268536923F001035361026853696D
:101D2C0023F040035361202380F84A30FFF7E7FF8C
:101D3C0008BD08B590F84A30DBB2222B23D10368DA
:101D4C005A68836B1A70836B01338363C38F013BB7
:101D5C009BB2C3870BB1002016E00268D36823F056
:101D6C002003D3600268D36823F48073D3600268C5
:101D7C00536923F001035361202380F84A30FFF7A5
:101D8C00BEFF002000E0022008BD704710B5446A79
:101D9C000023E387E3861023E36423685A6994F8ED
:101DAC004930DBB2212B0CD023685A6902F0400277
:101DBC0094F84A30DBB2222B0BD02046FFF7E5FF1C
:101DCC0010BD02F08002002AEED02046FFF7C2FDC3
:101DDC00EAE7002AF1D02046FFF7C5FDEDE7000049
:101DEC0010B5044602681368D168526913F00F00ED
:101DFC0005D113F0200F02D011F0200F53D1002881
:101E0C0067D012F0010202D111F4907F61D013F06F
:101E1C00010F06D011F4807F03D0E06C40F001007C
:101E2C00E06413F0040F04D01AB1E06C40F002002F
:101E3C00E06413F0020F04D01AB1E06C40F004001F
:101E4C00E06413F0080F04D01AB1E26C42F00802FF
:101E5C00E264E26C002A48D013F0200F02D011F09B
:101E6C00200F24D123685B6903F04003E26C12F06D
:101E7C00080F00D13BB32046FFF775FD23685A6964
:101E8C0012F0400F1BD05A6922F040025A61636C69
:101E9C008BB11A4A5A63606CFFF76EFC28B3606C06
:101EAC00436B984721E02046FFF743FF1DE0204697
:101EBC00FFF73FFFD6E72046FFF767FF15E0204608
:101ECC00FFF763FF11E02046FFF75FFF0023E36499
:101EDC000BE013F0800F02D011F0800F06D113F03D
:101EEC00400F02D011F0400F04D110BD2046FFF777
:101EFC0048FDFAE72046FFF7F0FEF6E70D1F000855
:101F0C0008B5406A0023C387C386FFF73EFF08BDB0
:101F1C00002103E00B4B5B58435004310A480B4B38
:101F2C0042189A42F6D30A4A02E0002342F8043BD4
:101F3C00084B9A42F9D3FFF701F900F00FF8FFF7BD
:101F4C00FBFA704720200008000000207C000020D5
:101F5C007C00002040020020FEE7000070B5002548
:101F6C000C4E0D4CA41BA410A54209D100F01AF87C
:101F7C0000250A4E0A4CA41BA410A54205D170BD25
:101F8C0056F8253098470135EEE756F82530984736
:101F9C000135F2E718200008182000081820000866
:101FAC001C200008F8B500BFF8BC08BC9E46704762
:0C1FBC00F8B500BFF8BC08BC9E4670479A
:101FC80002030405060708090A0B0C0D0E0F101072
:101FD800010200005372632F73746D3332663178D7
:101FE800785F68616C5F6D73702E6300000000009D
:101FF80000000000010203040607080900000000B1
:10200800010203045372632F6D61696E2E63000031
:04201800310100088A
:04201C000D010008AA
:10202000010000001000000000A24A046C00000043
:102030000A0D202A2A2A2A554152542D48797065C2
:10204000727465726D696E616C20636F6D6D756E13
:1020500069636174696F6E206261736564206F6E7D
:1020600020444D412A2A2A2A0A0D20456E746572A1
:1020700020525842554646455253495A45206368B6
:102080006172616374657273207573696E67206B2A
:0C2090006579626F617264203A0A0D00ED
:0400000508001F1DB3
:00000001FF
